{
  "contractName": "SupplyChain",
  "abi": [
    {
      "constant": true,
      "inputs": [
        {
          "name": "",
          "type": "uint256"
        }
      ],
      "name": "chainItems",
      "outputs": [
        {
          "name": "Name",
          "type": "string"
        },
        {
          "name": "LocationId",
          "type": "uint256"
        },
        {
          "name": "PreviousLocationId",
          "type": "uint256"
        },
        {
          "name": "Timestamp",
          "type": "uint256"
        },
        {
          "name": "Secret",
          "type": "string"
        }
      ],
      "payable": false,
      "stateMutability": "view",
      "type": "function"
    },
    {
      "constant": false,
      "inputs": [
        {
          "name": "LocationId",
          "type": "uint256"
        },
        {
          "name": "Name",
          "type": "string"
        },
        {
          "name": "Secret",
          "type": "string"
        }
      ],
      "name": "AddNewLocation",
      "outputs": [
        {
          "name": "success",
          "type": "bool"
        }
      ],
      "payable": false,
      "stateMutability": "nonpayable",
      "type": "function"
    },
    {
      "constant": true,
      "inputs": [],
      "name": "getChainItems",
      "outputs": [
        {
          "name": "",
          "type": "string[]"
        },
        {
          "name": "",
          "type": "uint256[]"
        },
        {
          "name": "",
          "type": "uint256[]"
        }
      ],
      "payable": false,
      "stateMutability": "view",
      "type": "function"
    },
    {
      "constant": false,
      "inputs": [],
      "name": "GetTrailCount",
      "outputs": [
        {
          "name": "",
          "type": "uint8"
        }
      ],
      "payable": false,
      "stateMutability": "nonpayable",
      "type": "function"
    },
    {
      "constant": false,
      "inputs": [
        {
          "name": "TrailNo",
          "type": "uint8"
        }
      ],
      "name": "GetLocation",
      "outputs": [
        {
          "name": "",
          "type": "string"
        },
        {
          "name": "",
          "type": "uint256"
        },
        {
          "name": "",
          "type": "uint256"
        },
        {
          "name": "",
          "type": "string"
        }
      ],
      "payable": false,
      "stateMutability": "nonpayable",
      "type": "function"
    }
  ],
  "bytecode": "0x60806040526000600260006101000a81548160ff021916908360ff16021790555034801561002c57600080fd5b50610f088061003c6000396000f30060806040526004361061006d576000357c0100000000000000000000000000000000000000000000000000000000900463ffffffff168063988bbca3146100725780639da124df146100af578063bbe42af8146100dc578063c7c7dd3f14610107578063e3fd1ec214610148575b600080fd5b34801561007e57600080fd5b5061009960048036036100949190810190610a48565b610188565b6040516100a69190610c9e565b60405180910390f35b3480156100bb57600080fd5b506100c461034f565b6040516100d393929190610c52565b60405180910390f35b3480156100e857600080fd5b506100f161058c565b6040516100fe9190610d6d565b60405180910390f35b34801561011357600080fd5b5061012e60048036036101299190810190610a1f565b6105a3565b60405161013f959493929190610d0c565b60405180910390f35b34801561015457600080fd5b5061016f600480360361016a9190810190610ac7565b610718565b60405161017f9493929190610cb9565b60405180910390f35b60006101926108cc565b83816000018190525084816020018181525050828160800181905250428160600181815250506000600260009054906101000a900460ff1660ff161415156102075760016000600260009054906101000a900460ff1660ff168152602001908152602001600020600101548160400181815250505b8060016000600260009054906101000a900460ff1660ff16815260200190815260200160002060008201518160000190805190602001906102499291906108fc565b5060208201518160010155604082015181600201556060820151816003015560808201518160040190805190602001906102849291906108fc565b509050506000819080600181540180825580915050906001820390600052602060002090600502016000909192909190915060008201518160000190805190602001906102d29291906108fc565b50602082015181600101556040820151816002015560608201518160030155608082015181600401908051906020019061030d9291906108fc565b505050506002600081819054906101000a900460ff168092919060010191906101000a81548160ff021916908360ff1602179055505060019150509392505050565b6060806060600060608060606000808054905094508460405190808252806020026020018201604052801561039857816020015b60608152602001906001900390816103835790505b509350846040519080825280602002602001820160405280156103ca5781602001602082028038833980820191505090505b509250846040519080825280602002602001820160405280156103fc5781602001602082028038833980820191505090505b509150600090505b600260009054906101000a900460ff1660ff168110156105795760008181548110151561042d57fe5b90600052602060002090600502016000018054600181600116156101000203166002900480601f0160208091040260200160405190810160405280929190818152602001828054600181600116156101000203166002900480156104d25780601f106104a7576101008083540402835291602001916104d2565b820191906000526020600020905b8154815290600101906020018083116104b557829003601f168201915b505050505084828151811015156104e557fe5b9060200190602002018190525060008181548110151561050157fe5b906000526020600020906005020160010154838281518110151561052157fe5b906020019060200201818152505060008181548110151561053e57fe5b906000526020600020906005020160030154828281518110151561055e57fe5b90602001906020020181815250508080600101915050610404565b8383839750975097505050505050909192565b6000600260009054906101000a900460ff16905090565b6000818154811015156105b257fe5b9060005260206000209060050201600091509050806000018054600181600116156101000203166002900480601f01602080910402602001604051908101604052809291908181526020018280546001816001161561010002031660029004801561065e5780601f106106335761010080835404028352916020019161065e565b820191906000526020600020905b81548152906001019060200180831161064157829003601f168201915b505050505090806001015490806002015490806003015490806004018054600181600116156101000203166002900480601f01602080910402602001604051908101604052809291908181526020018280546001816001161561010002031660029004801561070e5780601f106106e35761010080835404028352916020019161070e565b820191906000526020600020905b8154815290600101906020018083116106f157829003601f168201915b5050505050905085565b60606000806060600160008660ff168152602001908152602001600020600001600160008760ff16815260200190815260200160002060010154600160008860ff16815260200190815260200160002060030154600160008960ff168152602001908152602001600020600401838054600181600116156101000203166002900480601f01602080910402602001604051908101604052809291908181526020018280546001816001161561010002031660029004801561081a5780601f106107ef5761010080835404028352916020019161081a565b820191906000526020600020905b8154815290600101906020018083116107fd57829003601f168201915b50505050509350808054600181600116156101000203166002900480601f0160208091040260200160405190810160405280929190818152602001828054600181600116156101000203166002900480156108b65780601f1061088b576101008083540402835291602001916108b6565b820191906000526020600020905b81548152906001019060200180831161089957829003601f168201915b5050505050905093509350935093509193509193565b60a06040519081016040528060608152602001600081526020016000815260200160008152602001606081525090565b828054600181600116156101000203166002900490600052602060002090601f016020900481019282601f1061093d57805160ff191683800117855561096b565b8280016001018555821561096b579182015b8281111561096a57825182559160200191906001019061094f565b5b509050610978919061097c565b5090565b61099e91905b8082111561099a576000816000905550600101610982565b5090565b90565b600082601f83011215156109b457600080fd5b81356109c76109c282610db5565b610d88565b915080825260208301602083018583830111156109e357600080fd5b6109ee838284610e7b565b50505092915050565b6000610a038235610e64565b905092915050565b6000610a178235610e6e565b905092915050565b600060208284031215610a3157600080fd5b6000610a3f848285016109f7565b91505092915050565b600080600060608486031215610a5d57600080fd5b6000610a6b868287016109f7565b935050602084013567ffffffffffffffff811115610a8857600080fd5b610a94868287016109a1565b925050604084013567ffffffffffffffff811115610ab157600080fd5b610abd868287016109a1565b9150509250925092565b600060208284031215610ad957600080fd5b6000610ae784828501610a0b565b91505092915050565b6000610afb82610dfb565b80845260208401935083602082028501610b1485610de1565b60005b84811015610b4d578383038852610b2f838351610bfe565b9250610b3a82610e27565b9150602088019750600181019050610b17565b508196508694505050505092915050565b6000610b6982610e06565b808452602084019350610b7b83610dee565b60005b82811015610bad57610b91868351610c34565b610b9a82610e34565b9150602086019550600181019050610b7e565b50849250505092915050565b610bc281610e41565b82525050565b6000610bd382610e1c565b808452610be7816020860160208601610e8a565b610bf081610ebd565b602085010191505092915050565b6000610c0982610e11565b808452610c1d816020860160208601610e8a565b610c2681610ebd565b602085010191505092915050565b610c3d81610e4d565b82525050565b610c4c81610e57565b82525050565b60006060820190508181036000830152610c6c8186610af0565b90508181036020830152610c808185610b5e565b90508181036040830152610c948184610b5e565b9050949350505050565b6000602082019050610cb36000830184610bb9565b92915050565b60006080820190508181036000830152610cd38187610bc8565b9050610ce26020830186610c34565b610cef6040830185610c34565b8181036060830152610d018184610bc8565b905095945050505050565b600060a0820190508181036000830152610d268188610bfe565b9050610d356020830187610c34565b610d426040830186610c34565b610d4f6060830185610c34565b8181036080830152610d618184610bfe565b90509695505050505050565b6000602082019050610d826000830184610c43565b92915050565b6000604051905081810181811067ffffffffffffffff82111715610dab57600080fd5b8060405250919050565b600067ffffffffffffffff821115610dcc57600080fd5b601f19601f8301169050602081019050919050565b6000602082019050919050565b6000602082019050919050565b600081519050919050565b600081519050919050565b600081519050919050565b600081519050919050565b6000602082019050919050565b6000602082019050919050565b60008115159050919050565b6000819050919050565b600060ff82169050919050565b6000819050919050565b600060ff82169050919050565b82818337600083830152505050565b60005b83811015610ea8578082015181840152602081019050610e8d565b83811115610eb7576000848401525b50505050565b6000601f19601f83011690509190505600a265627a7a7230582053bcfe5ee4ef4989ecd327c4d80b80864b0521ffa6f0852b30ff6af688d0b03f6c6578706572696d656e74616cf50037",
  "source": "pragma solidity ^0.4.6;\r\npragma experimental ABIEncoderV2;\r\n contract SupplyChain\r\n{\r\n    Location[] public chainItems;\r\n     struct Location{\r\n        string Name;\r\n        uint LocationId;\r\n        uint PreviousLocationId;\r\n        uint Timestamp;\r\n        string Secret;\r\n    }\r\n    \r\n    mapping(uint => Location) Trail;\r\n    uint8 TrailCount=0;\r\n     function AddNewLocation(uint LocationId, string Name, string Secret) returns (bool success)\r\n    {\r\n        Location memory newLocation;\r\n        newLocation.Name = Name;\r\n        newLocation.LocationId= LocationId;\r\n        newLocation.Secret= Secret;\r\n        newLocation.Timestamp = now;\r\n        if(TrailCount!=0)\r\n        {\r\n            newLocation.PreviousLocationId= Trail[TrailCount].LocationId;\r\n        }\r\n        Trail[TrailCount] = newLocation;\r\n        chainItems.push(newLocation);\r\n        TrailCount++;\r\n        return true;\r\n    }\r\n    function getChainItems() constant returns (string[], uint[], uint[]) {\r\n        uint length = chainItems.length;\r\n         string[] memory name = new string[](length);\r\n        uint[] memory locationId = new uint[](length);\r\n        uint[] memory timestamp = new uint[](length);\r\n         for (uint i = 0; i < TrailCount; i++) {\r\n            name[i] = chainItems[i].Name;\r\n            locationId[i] = chainItems[i].LocationId;\r\n            timestamp[i] = chainItems[i].Timestamp;\r\n        }\r\n        // return TrailCount;\r\n        return (name, locationId, timestamp);\r\n    }\r\n     function GetTrailCount() returns(uint8){\r\n        return TrailCount;\r\n    }\r\n     function GetLocation(uint8 TrailNo) returns (string,uint,uint,string)\r\n    {\r\n        return (Trail[TrailNo].Name, Trail[TrailNo].LocationId, Trail[TrailNo].Timestamp,Trail[TrailNo].Secret);\r\n    }\r\n} ",
  "sourcePath": "/home/terry/Tarang/Github/supply-chain-blockchain/contract-server/contracts/Foodsafe.sol",
  "compiler": {
    "name": "solc",
    "version": "0.4.24+commit.e67f0147.Emscripten.clang"
  },
  "schemaVersion": "2.0.1",
  "updatedAt": "2018-11-22T19:39:14.513Z"
}