{
  "contractName": "SupplyChain",
  "abi": [
    {
      "constant": true,
      "inputs": [
        {
          "name": "",
          "type": "uint256"
        }
      ],
      "name": "chainItems",
      "outputs": [
        {
          "name": "Name",
          "type": "string"
        },
        {
          "name": "LocationId",
          "type": "uint256"
        },
        {
          "name": "PreviousLocationId",
          "type": "uint256"
        },
        {
          "name": "Timestamp",
          "type": "uint256"
        },
        {
          "name": "Secret",
          "type": "string"
        }
      ],
      "payable": false,
      "stateMutability": "view",
      "type": "function"
    },
    {
      "constant": false,
      "inputs": [
        {
          "name": "LocationId",
          "type": "uint256"
        },
        {
          "name": "Name",
          "type": "string"
        },
        {
          "name": "Secret",
          "type": "string"
        }
      ],
      "name": "AddNewLocation",
      "outputs": [
        {
          "name": "success",
          "type": "bool"
        }
      ],
      "payable": false,
      "stateMutability": "nonpayable",
      "type": "function"
    },
    {
      "constant": true,
      "inputs": [],
      "name": "getChainItems",
      "outputs": [
        {
          "name": "",
          "type": "string[]"
        },
        {
          "name": "",
          "type": "uint256[]"
        },
        {
          "name": "",
          "type": "uint256[]"
        }
      ],
      "payable": false,
      "stateMutability": "view",
      "type": "function"
    },
    {
      "constant": false,
      "inputs": [],
      "name": "GetTrailCount",
      "outputs": [
        {
          "name": "",
          "type": "uint8"
        }
      ],
      "payable": false,
      "stateMutability": "nonpayable",
      "type": "function"
    },
    {
      "constant": false,
      "inputs": [
        {
          "name": "TrailNo",
          "type": "uint8"
        }
      ],
      "name": "GetLocation",
      "outputs": [
        {
          "name": "",
          "type": "string"
        },
        {
          "name": "",
          "type": "uint256"
        },
        {
          "name": "",
          "type": "uint256"
        },
        {
          "name": "",
          "type": "string"
        }
      ],
      "payable": false,
      "stateMutability": "nonpayable",
      "type": "function"
    }
  ],
  "bytecode": "0x60806040526002805460ff1916905534801561001a57600080fd5b50610c5a8061002a6000396000f30060806040526004361061006c5763ffffffff7c0100000000000000000000000000000000000000000000000000000000600035041663988bbca381146100715780639da124df146100a7578063bbe42af8146100cb578063c7c7dd3f146100ed578063e3fd1ec21461011e575b600080fd5b34801561007d57600080fd5b5061009161008c3660046108c3565b61014e565b60405161009e9190610ab4565b60405180910390f35b3480156100b357600080fd5b506100bc6102ab565b60405161009e93929190610a72565b3480156100d757600080fd5b506100e06104a7565b60405161009e9190610b68565b3480156100f957600080fd5b5061010d61010836600461089d565b6104b1565b60405161009e959493929190610b11565b34801561012a57600080fd5b5061013e610139366004610940565b610612565b60405161009e9493929190610ac8565b6000610158610762565b838152602081018590526080810183905242606082015260025460ff16156101995760025460ff166000908152600160208190526040918290200154908201525b60025460ff1660009081526001602090815260409091208251805184936101c4928492910190610792565b5060208281015160018301556040830151600283015560608301516003830155608083015180516101fb9260048501920190610792565b5050600080546001810180835591805283518051929350849260059092027f290decd9548b62a8d60345a988386fc84ba6bc95484008f6362f93160ef3e563019161024e91839160209190910190610792565b5060208281015160018301556040830151600283015560608301516003830155608083015180516102859260048501920190610792565b50506002805460ff198116600160ff928316810190921617909155979650505050505050565b606080606060006060806060600080805490509450846040519080825280602002602001820160405280156102f457816020015b60608152602001906001900390816102df5790505b50935084604051908082528060200260200182016040528015610321578160200160208202803883390190505b5092508460405190808252806020026020018201604052801561034e578160200160208202803883390190505b509150600090505b60025460ff1681101561049957600080548290811061037157fe5b6000918252602091829020600590910201805460408051601f60026000196101006001871615020190941693909304928301859004850281018501909152818152928301828280156104045780601f106103d957610100808354040283529160200191610404565b820191906000526020600020905b8154815290600101906020018083116103e757829003601f168201915b5050505050848281518110151561041757fe5b60209081029091010152600080548290811061042f57fe5b906000526020600020906005020160010154838281518110151561044f57fe5b60209081029091010152600080548290811061046757fe5b906000526020600020906005020160030154828281518110151561048757fe5b60209081029091010152600101610356565b509196909550909350915050565b60025460ff165b90565b60008054829081106104bf57fe5b60009182526020918290206005919091020180546040805160026001841615610100026000190190931692909204601f8101859004850283018501909152808252919350918391908301828280156105585780601f1061052d57610100808354040283529160200191610558565b820191906000526020600020905b81548152906001019060200180831161053b57829003601f168201915b505050505090806001015490806002015490806003015490806004018054600181600116156101000203166002900480601f0160208091040260200160405190810160405280929190818152602001828054600181600116156101000203166002900480156106085780601f106105dd57610100808354040283529160200191610608565b820191906000526020600020905b8154815290600101906020018083116105eb57829003601f168201915b5050505050905085565b60ff8116600090815260016020818152604080842080840154600382015482548451600297821615610100026000190190911696909604601f810186900486028701860190945283865260609695869588956004860192918691908301828280156106be5780601f10610693576101008083540402835291602001916106be565b820191906000526020600020905b8154815290600101906020018083116106a157829003601f168201915b5050845460408051602060026001851615610100026000190190941693909304601f81018490048402820184019092528181529599508694509250840190508282801561074c5780601f106107215761010080835404028352916020019161074c565b820191906000526020600020905b81548152906001019060200180831161072f57829003601f168201915b5050505050905093509350935093509193509193565b60a06040519081016040528060608152602001600081526020016000815260200160008152602001606081525090565b828054600181600116156101000203166002900490600052602060002090601f016020900481019282601f106107d357805160ff1916838001178555610800565b82800160010185558215610800579182015b828111156108005782518255916020019190600101906107e5565b5061080c929150610810565b5090565b6104ae91905b8082111561080c5760008155600101610816565b6000601f8201831361083b57600080fd5b813561084e61084982610b9d565b610b76565b9150808252602083016020830185838301111561086a57600080fd5b610875838284610bda565b50505092915050565b600061088a82356104ae565b9392505050565b600061088a8235610bd4565b6000602082840312156108af57600080fd5b60006108bb848461087e565b949350505050565b6000806000606084860312156108d857600080fd5b60006108e4868661087e565b935050602084013567ffffffffffffffff81111561090157600080fd5b61090d8682870161082a565b925050604084013567ffffffffffffffff81111561092a57600080fd5b6109368682870161082a565b9150509250925092565b60006020828403121561095257600080fd5b60006108bb8484610891565b600061096982610bcb565b8084526020840193508360208202850161098285610bc5565b60005b848110156109b957838303885261099d838351610a2b565b92506109a882610bc5565b602098909801979150600101610985565b50909695505050505050565b60006109d082610bcb565b8084526020840193506109e283610bc5565b60005b82811015610a12576109f8868351610a60565b610a0182610bc5565b6020969096019591506001016109e5565b5093949350505050565b610a2581610bcf565b82525050565b6000610a3682610bcb565b808452610a4a816020860160208601610be6565b610a5381610c16565b9093016020019392505050565b610a25816104ae565b610a2581610bd4565b60608082528101610a83818661095e565b90508181036020830152610a9781856109c5565b90508181036040830152610aab81846109c5565b95945050505050565b60208101610ac28284610a1c565b92915050565b60808082528101610ad98187610a2b565b9050610ae86020830186610a60565b610af56040830185610a60565b8181036060830152610b078184610a2b565b9695505050505050565b60a08082528101610b228188610a2b565b9050610b316020830187610a60565b610b3e6040830186610a60565b610b4b6060830185610a60565b8181036080830152610b5d8184610a2b565b979650505050505050565b60208101610ac28284610a69565b60405181810167ffffffffffffffff81118282101715610b9557600080fd5b604052919050565b600067ffffffffffffffff821115610bb457600080fd5b506020601f91909101601f19160190565b60200190565b5190565b151590565b60ff1690565b82818337506000910152565b60005b83811015610c01578181015183820152602001610be9565b83811115610c10576000848401525b50505050565b601f01601f1916905600a265627a7a72305820bb685f9c118db8b254e861df87b3c301e8c0a8e6bb0f5e1cf6968d88029f02fc6c6578706572696d656e74616cf50037",
  "source": "pragma solidity ^0.4.6;\npragma experimental ABIEncoderV2;\n\ncontract SupplyChain\n{\n    Location[] public chainItems;\n\n    struct Location{\n        string Name;\n        uint LocationId;\n        uint PreviousLocationId;\n        uint Timestamp;\n        string Secret;\n    }\n    \n    mapping(uint => Location) Trail;\n    uint8 TrailCount=0;\n\n    function AddNewLocation(uint LocationId, string Name, string Secret) returns (bool success)\n    {\n        Location memory newLocation;\n        newLocation.Name = Name;\n        newLocation.LocationId= LocationId;\n        newLocation.Secret= Secret;\n        newLocation.Timestamp = now;\n        if(TrailCount!=0)\n        {\n            newLocation.PreviousLocationId= Trail[TrailCount].LocationId;\n        }\n        Trail[TrailCount] = newLocation;\n        chainItems.push(newLocation);\n        TrailCount++;\n        return true;\n    }\n    function getChainItems() constant returns (string[], uint[], uint[]) {\n        uint length = chainItems.length;\n\n        string[] memory name = new string[](length);\n        uint[] memory locationId = new uint[](length);\n        uint[] memory timestamp = new uint[](length);\n\n        for (uint i = 0; i < TrailCount; i++) {\n            name[i] = chainItems[i].Name;\n            locationId[i] = chainItems[i].LocationId;\n            timestamp[i] = chainItems[i].Timestamp;\n        }\n        // return TrailCount;\n        return (name, locationId, timestamp);\n    }\n\n    function GetTrailCount() returns(uint8){\n        return TrailCount;\n    }\n\n    function GetLocation(uint8 TrailNo) returns (string,uint,uint,string)\n    {\n        return (Trail[TrailNo].Name, Trail[TrailNo].LocationId, Trail[TrailNo].Timestamp,Trail[TrailNo].Secret);\n    }\n}",
  "sourcePath": "/home/terry/Tarang/Github/supply-chain-blockchain/contracts/SupplyChain.sol",
  "compiler": {
    "name": "solc",
    "version": "0.4.24+commit.e67f0147.Emscripten.clang"
  },
  "schemaVersion": "2.0.1",
  "updatedAt": "2018-11-19T06:09:22.105Z"
}