{
  "contractName": "TodoList",
  "abi": [
    {
      "constant": true,
      "inputs": [
        {
          "name": "",
          "type": "uint256"
        }
      ],
      "name": "todoItems",
      "outputs": [
        {
          "name": "value",
          "type": "bytes32"
        },
        {
          "name": "active",
          "type": "bool"
        }
      ],
      "payable": false,
      "stateMutability": "view",
      "type": "function"
    },
    {
      "constant": false,
      "inputs": [
        {
          "name": "_value",
          "type": "bytes32"
        }
      ],
      "name": "addTodoItem",
      "outputs": [
        {
          "name": "success",
          "type": "bool"
        }
      ],
      "payable": false,
      "stateMutability": "nonpayable",
      "type": "function"
    },
    {
      "constant": true,
      "inputs": [],
      "name": "getTodoItems",
      "outputs": [
        {
          "name": "",
          "type": "bytes32[]"
        },
        {
          "name": "",
          "type": "bool[]"
        }
      ],
      "payable": false,
      "stateMutability": "view",
      "type": "function"
    },
    {
      "constant": false,
      "inputs": [
        {
          "name": "index",
          "type": "uint256"
        }
      ],
      "name": "deleteTodoItem",
      "outputs": [
        {
          "name": "success",
          "type": "bool"
        }
      ],
      "payable": false,
      "stateMutability": "nonpayable",
      "type": "function"
    }
  ],
  "bytecode": "0x608060405234801561001057600080fd5b506105dc806100206000396000f300608060405260043610610062576000357c0100000000000000000000000000000000000000000000000000000000900463ffffffff16806312f616a2146100675780633b73a192146100ac5780636958736114610160578063c627e610146101a9575b600080fd5b34801561007357600080fd5b50610092600480360381019080803590602001909291905050506101fd565b604051808215151515815260200191505060405180910390f35b3480156100b857600080fd5b506100c1610316565b604051808060200180602001838103835285818151815260200191508051906020019060200280838360005b838110156101085780820151818401526020810190506100ed565b50505050905001838103825284818151815260200191508051906020019060200280838360005b8381101561014a57808201518184015260208101905061012f565b5050505090500194505050505060405180910390f35b34801561016c57600080fd5b5061018f600480360381019080803560001916906020019092919050505061044a565b604051808215151515815260200191505060405180910390f35b3480156101b557600080fd5b506101d4600480360381019080803590602001909291905050506104e4565b604051808360001916600019168152602001821515151581526020019250505060405180910390f35b6000806000805490508310151561021357610310565b8290505b6001600080549050038110156102b15760006001820181548110151561023957fe5b906000526020600020906002020160008281548110151561025657fe5b9060005260206000209060020201600082015481600001906000191690556001820160009054906101000a900460ff168160010160006101000a81548160ff0219169083151502179055509050508080600101915050610217565b60006001600080549050038154811015156102c857fe5b90600052602060002090600202016000808201600090556001820160006101000a81549060ff02191690555050600080548091906001900361030a9190610524565b50600191505b50919050565b6060806000606080600080805490509350836040519080825280602002602001820160405280156103565781602001602082028038833980820191505090505b509250836040519080825280602002602001820160405280156103885781602001602082028038833980820191505090505b509150600090505b8381101561043c576000818154811015156103a757fe5b90600052602060002090600202016000015483828151811015156103c757fe5b9060200190602002019060001916908160001916815250506000818154811015156103ee57fe5b906000526020600020906002020160010160009054906101000a900460ff16828281518110151561041b57fe5b90602001906020020190151590811515815250508080600101915050610390565b828295509550505050509091565b6000610454610556565b82816000019060001916908160001916815250506000816020019015159081151581525050600081908060018154018082558091505090600182039060005260206000209060020201600090919290919091506000820151816000019060001916905560208201518160010160006101000a81548160ff0219169083151502179055505050506001915050919050565b6000818154811015156104f357fe5b90600052602060002090600202016000915090508060000154908060010160009054906101000a900460ff16905082565b815481835581811115610551576002028160020283600052602060002091820191016105509190610575565b5b505050565b6040805190810160405280600080191681526020016000151581525090565b6105ad91905b808211156105a9576000808201600090556001820160006101000a81549060ff02191690555060020161057b565b5090565b905600a165627a7a723058207665b8047565d90c9286ad7992d2e481b25f95f936f3857aa08f83b257e5d93a0029",
  "source": "pragma solidity ^0.4.2;\n\ncontract TodoList {\n  TodoItem[] public todoItems;\n\n  struct TodoItem {\n    bytes32 value;\n    bool active;\n  }\n\n  function addTodoItem(bytes32 _value) returns (bool success) {\n    TodoItem memory todoItem;\n    todoItem.value = _value;\n    todoItem.active = false;\n\n    todoItems.push(todoItem);\n    return true;\n  }\n\n  function getTodoItems() constant returns (bytes32[], bool[]) {\n    uint length = todoItems.length;\n\n    bytes32[] memory values = new bytes32[](length);\n    bool[] memory actives = new bool[](length);\n\n    for (uint i = 0; i < length; i++) {\n      values[i] = todoItems[i].value;\n      actives[i] = todoItems[i].active;\n    }\n\n    return (values, actives);\n  }\n\n  function deleteTodoItem(uint index) returns (bool success) {\n    if (index >= todoItems.length) return;\n\n    for (uint i = index; i < todoItems.length - 1; i++){\n        todoItems[i] = todoItems[i+1];\n    }\n\n    delete todoItems[todoItems.length - 1];\n    todoItems.length--;\n    return true;\n  }\n}",
  "sourcePath": "/home/terry/Tarang/Github/supply-chain-blockchain/contracts/TodoList.sol",
  "compiler": {
    "name": "solc",
    "version": "0.4.24+commit.e67f0147.Emscripten.clang"
  },
  "schemaVersion": "2.0.1",
  "updatedAt": "2018-11-18T20:43:03.450Z"
}